{
  "contractName": "Contract",
  "abi": [
    {
      "inputs": [
        {
          "internalType": "uint256",
          "name": "id",
          "type": "uint256"
        },
        {
          "internalType": "string",
          "name": "created_by",
          "type": "string"
        },
        {
          "internalType": "string",
          "name": "created_at",
          "type": "string"
        },
        {
          "internalType": "string",
          "name": "file_hash",
          "type": "string"
        },
        {
          "internalType": "string",
          "name": "status",
          "type": "string"
        },
        {
          "internalType": "string",
          "name": "description",
          "type": "string"
        }
      ],
      "name": "createCase",
      "outputs": [],
      "stateMutability": "nonpayable",
      "type": "function"
    },
    {
      "inputs": [
        {
          "internalType": "uint256",
          "name": "id",
          "type": "uint256"
        }
      ],
      "name": "getCase",
      "outputs": [
        {
          "internalType": "string",
          "name": "created_by",
          "type": "string"
        },
        {
          "internalType": "string",
          "name": "created_at",
          "type": "string"
        },
        {
          "internalType": "string",
          "name": "file_hash",
          "type": "string"
        },
        {
          "internalType": "string",
          "name": "status",
          "type": "string"
        },
        {
          "internalType": "string",
          "name": "description",
          "type": "string"
        }
      ],
      "stateMutability": "view",
      "type": "function",
      "constant": true
    },
    {
      "inputs": [],
      "name": "getLastCaseIndex",
      "outputs": [
        {
          "internalType": "uint256",
          "name": "index",
          "type": "uint256"
        }
      ],
      "stateMutability": "view",
      "type": "function",
      "constant": true
    },
    {
      "inputs": [
        {
          "internalType": "uint256",
          "name": "id",
          "type": "uint256"
        },
        {
          "internalType": "string",
          "name": "updated_by",
          "type": "string"
        },
        {
          "internalType": "string",
          "name": "updated_at",
          "type": "string"
        },
        {
          "internalType": "string",
          "name": "description",
          "type": "string"
        },
        {
          "internalType": "uint256",
          "name": "vote_app",
          "type": "uint256"
        },
        {
          "internalType": "uint256",
          "name": "vote_din",
          "type": "uint256"
        },
        {
          "internalType": "uint256",
          "name": "vote_count",
          "type": "uint256"
        },
        {
          "internalType": "uint256",
          "name": "report_index",
          "type": "uint256"
        }
      ],
      "name": "setNewDescriptor",
      "outputs": [],
      "stateMutability": "nonpayable",
      "type": "function"
    },
    {
      "inputs": [
        {
          "internalType": "uint256",
          "name": "id",
          "type": "uint256"
        },
        {
          "internalType": "string",
          "name": "updated_by",
          "type": "string"
        },
        {
          "internalType": "string",
          "name": "updated_at",
          "type": "string"
        },
        {
          "internalType": "string",
          "name": "description",
          "type": "string"
        },
        {
          "internalType": "uint256",
          "name": "vote_app",
          "type": "uint256"
        },
        {
          "internalType": "uint256",
          "name": "vote_din",
          "type": "uint256"
        },
        {
          "internalType": "uint256",
          "name": "vote_count",
          "type": "uint256"
        },
        {
          "internalType": "uint256",
          "name": "report_index",
          "type": "uint256"
        }
      ],
      "name": "setoldDescriptor",
      "outputs": [],
      "stateMutability": "nonpayable",
      "type": "function"
    },
    {
      "inputs": [
        {
          "internalType": "uint256",
          "name": "id",
          "type": "uint256"
        }
      ],
      "name": "getLastDesc",
      "outputs": [
        {
          "components": [
            {
              "internalType": "string",
              "name": "updated_by",
              "type": "string"
            },
            {
              "internalType": "string",
              "name": "updated_at",
              "type": "string"
            },
            {
              "internalType": "string",
              "name": "report_hash",
              "type": "string"
            },
            {
              "internalType": "uint256",
              "name": "vote_app",
              "type": "uint256"
            },
            {
              "internalType": "uint256",
              "name": "vote_din",
              "type": "uint256"
            },
            {
              "internalType": "uint256",
              "name": "vote_count",
              "type": "uint256"
            },
            {
              "internalType": "uint256",
              "name": "report_index",
              "type": "uint256"
            }
          ],
          "internalType": "struct Contract.Desc",
          "name": "",
          "type": "tuple"
        }
      ],
      "stateMutability": "view",
      "type": "function",
      "constant": true
    },
    {
      "inputs": [
        {
          "internalType": "uint256",
          "name": "id",
          "type": "uint256"
        }
      ],
      "name": "getLastDescIndex",
      "outputs": [
        {
          "internalType": "uint256",
          "name": "index",
          "type": "uint256"
        }
      ],
      "stateMutability": "view",
      "type": "function",
      "constant": true
    },
    {
      "inputs": [
        {
          "internalType": "uint256",
          "name": "id",
          "type": "uint256"
        },
        {
          "internalType": "uint256",
          "name": "x",
          "type": "uint256"
        }
      ],
      "name": "getDesc",
      "outputs": [
        {
          "components": [
            {
              "internalType": "string",
              "name": "updated_by",
              "type": "string"
            },
            {
              "internalType": "string",
              "name": "updated_at",
              "type": "string"
            },
            {
              "internalType": "string",
              "name": "report_hash",
              "type": "string"
            },
            {
              "internalType": "uint256",
              "name": "vote_app",
              "type": "uint256"
            },
            {
              "internalType": "uint256",
              "name": "vote_din",
              "type": "uint256"
            },
            {
              "internalType": "uint256",
              "name": "vote_count",
              "type": "uint256"
            },
            {
              "internalType": "uint256",
              "name": "report_index",
              "type": "uint256"
            }
          ],
          "internalType": "struct Contract.Desc",
          "name": "",
          "type": "tuple"
        }
      ],
      "stateMutability": "view",
      "type": "function",
      "constant": true
    },
    {
      "inputs": [
        {
          "internalType": "uint256",
          "name": "id",
          "type": "uint256"
        },
        {
          "internalType": "string",
          "name": "status",
          "type": "string"
        }
      ],
      "name": "setStatus",
      "outputs": [],
      "stateMutability": "nonpayable",
      "type": "function"
    },
    {
      "inputs": [
        {
          "internalType": "uint256",
          "name": "id",
          "type": "uint256"
        }
      ],
      "name": "approve",
      "outputs": [],
      "stateMutability": "nonpayable",
      "type": "function"
    },
    {
      "inputs": [
        {
          "internalType": "uint256",
          "name": "id",
          "type": "uint256"
        }
      ],
      "name": "denie",
      "outputs": [],
      "stateMutability": "nonpayable",
      "type": "function"
    }
  ],
  "bytecode": "0x608060405234801561001057600080fd5b506119cb806100206000396000f3fe608060405234801561001057600080fd5b50600436106100a95760003560e01c8063b759f95411610071578063b759f95414610154578063b790188614610170578063c3ccdedb1461018c578063cdad64be146101bc578063e5fb6098146101ec578063f60c3ed41461021c576100a9565b80631ad21f12146100ae578063205b5069146100ca57806348d4d7f5146100e857806376917df914610104578063a91a108014610120575b600080fd5b6100c860048036038101906100c39190611308565b610238565b005b6100d2610416565b6040516100df919061142f565b60405180910390f35b61010260048036038101906100fd919061144a565b610472565b005b61011e6004803603810190610119919061157b565b610538565b005b61013a600480360381019061013591906115db565b610562565b60405161014b9594939291906116a1565b60405180910390f35b61016e600480360381019061016991906115db565b6108a2565b005b61018a60048036038101906101859190611308565b61099e565b005b6101a660048036038101906101a191906115db565b610b6d565b6040516101b3919061181a565b60405180910390f35b6101d660048036038101906101d191906115db565b610df6565b6040516101e3919061142f565b60405180910390f35b6102066004803603810190610201919061183c565b610e68565b604051610213919061181a565b60405180910390f35b610236600480360381019061023191906115db565b611087565b005b60005b6103e881146102965760008060008e81526020019081526020016000206003016000838152602001908152602001600020600001805461027a906118ab565b905003156102965760018161028f919061190b565b905061023b565b6001816102a39190611961565b90508a8a6000808f8152602001908152602001600020600301600084815260200190815260200160002060000191906102dd929190611183565b5088886000808f815260200190815260200160002060030160008481526020019081526020016000206001019190610316929190611183565b5086866000808f81526020019081526020016000206003016000848152602001908152602001600020600201919061034f929190611183565b50846000808e8152602001908152602001600020600301600083815260200190815260200160002060030181905550836000808e8152602001908152602001600020600301600083815260200190815260200160002060040181905550826000808e8152602001908152602001600020600301600083815260200190815260200160002060050181905550816000808e8152602001908152602001600020600301600083815260200190815260200160002060060181905550505050505050505050505050565b600080600090505b6103e8811461046d5760008060008381526020019081526020016000206001018054610449906118ab565b905003610459578091505061046f565b600181610466919061190b565b905061041e565b505b90565b89896000808e81526020019081526020016000206000019190610496929190611183565b5087876000808e815260200190815260200160002060010191906104bb929190611183565b5085856000808e815260200190815260200160002060020191906104e0929190611183565b5083836000808e81526020019081526020016000206004019190610505929190611183565b5081816000808e8152602001908152602001600020600501919061052a929190611183565b505050505050505050505050565b8181600080868152602001908152602001600020600401919061055c929190611183565b50505050565b60608060608060606000808781526020019081526020016000206000016000808881526020019081526020016000206001016000808981526020019081526020016000206002016000808a81526020019081526020016000206004016000808b81526020019081526020016000206005018480546105df906118ab565b80601f016020809104026020016040519081016040528092919081815260200182805461060b906118ab565b80156106585780601f1061062d57610100808354040283529160200191610658565b820191906000526020600020905b81548152906001019060200180831161063b57829003601f168201915b5050505050945083805461066b906118ab565b80601f0160208091040260200160405190810160405280929190818152602001828054610697906118ab565b80156106e45780601f106106b9576101008083540402835291602001916106e4565b820191906000526020600020905b8154815290600101906020018083116106c757829003601f168201915b505050505093508280546106f7906118ab565b80601f0160208091040260200160405190810160405280929190818152602001828054610723906118ab565b80156107705780601f1061074557610100808354040283529160200191610770565b820191906000526020600020905b81548152906001019060200180831161075357829003601f168201915b50505050509250818054610783906118ab565b80601f01602080910402602001604051908101604052809291908181526020018280546107af906118ab565b80156107fc5780601f106107d1576101008083540402835291602001916107fc565b820191906000526020600020905b8154815290600101906020018083116107df57829003601f168201915b5050505050915080805461080f906118ab565b80601f016020809104026020016040519081016040528092919081815260200182805461083b906118ab565b80156108885780601f1061085d57610100808354040283529160200191610888565b820191906000526020600020905b81548152906001019060200180831161086b57829003601f168201915b505050505090509450945094509450945091939590929450565b60005b6103e88114610900576000806000848152602001908152602001600020600301600083815260200190815260200160002060000180546108e4906118ab565b90500315610900576001816108f9919061190b565b90506108a5565b600160008084815260200190815260200160002060030160006001846109269190611961565b81526020019081526020016000206003016000828254610946919061190b565b92505081905550600160008084815260200190815260200160002060030160006001846109739190611961565b81526020019081526020016000206005016000828254610993919061190b565b925050819055505050565b60005b6103e881146109fc5760008060008e8152602001908152602001600020600301600083815260200190815260200160002060000180546109e0906118ab565b905003156109fc576001816109f5919061190b565b90506109a1565b8a8a6000808f815260200190815260200160002060030160008481526020019081526020016000206000019190610a34929190611183565b5088886000808f815260200190815260200160002060030160008481526020019081526020016000206001019190610a6d929190611183565b5086866000808f815260200190815260200160002060030160008481526020019081526020016000206002019190610aa6929190611183565b50846000808e8152602001908152602001600020600301600083815260200190815260200160002060030181905550836000808e8152602001908152602001600020600301600083815260200190815260200160002060040181905550826000808e8152602001908152602001600020600301600083815260200190815260200160002060050181905550816000808e8152602001908152602001600020600301600083815260200190815260200160002060060181905550505050505050505050505050565b610b75611209565b60005b6103e88114610bd357600080600085815260200190815260200160002060030160008381526020019081526020016000206000018054610bb7906118ab565b90500315610bd357600181610bcc919061190b565b9050610b78565b6000808481526020019081526020016000206003016000600183610bf79190611961565b81526020019081526020016000206040518060e0016040529081600082018054610c20906118ab565b80601f0160208091040260200160405190810160405280929190818152602001828054610c4c906118ab565b8015610c995780601f10610c6e57610100808354040283529160200191610c99565b820191906000526020600020905b815481529060010190602001808311610c7c57829003601f168201915b50505050508152602001600182018054610cb2906118ab565b80601f0160208091040260200160405190810160405280929190818152602001828054610cde906118ab565b8015610d2b5780601f10610d0057610100808354040283529160200191610d2b565b820191906000526020600020905b815481529060010190602001808311610d0e57829003601f168201915b50505050508152602001600282018054610d44906118ab565b80601f0160208091040260200160405190810160405280929190818152602001828054610d70906118ab565b8015610dbd5780601f10610d9257610100808354040283529160200191610dbd565b820191906000526020600020905b815481529060010190602001808311610da057829003601f168201915b50505050508152602001600382015481526020016004820154815260200160058201548152602001600682015481525050915050919050565b600080600090505b6103e88114610e6157600080600085815260200190815260200160002060030160008381526020019081526020016000206000018054610e3d906118ab565b905003610e4d5780915050610e63565b600181610e5a919061190b565b9050610dfe565b505b919050565b610e70611209565b60008084815260200190815260200160002060030160008381526020019081526020016000206040518060e0016040529081600082018054610eb1906118ab565b80601f0160208091040260200160405190810160405280929190818152602001828054610edd906118ab565b8015610f2a5780601f10610eff57610100808354040283529160200191610f2a565b820191906000526020600020905b815481529060010190602001808311610f0d57829003601f168201915b50505050508152602001600182018054610f43906118ab565b80601f0160208091040260200160405190810160405280929190818152602001828054610f6f906118ab565b8015610fbc5780601f10610f9157610100808354040283529160200191610fbc565b820191906000526020600020905b815481529060010190602001808311610f9f57829003601f168201915b50505050508152602001600282018054610fd5906118ab565b80601f0160208091040260200160405190810160405280929190818152602001828054611001906118ab565b801561104e5780601f106110235761010080835404028352916020019161104e565b820191906000526020600020905b81548152906001019060200180831161103157829003601f168201915b50505050508152602001600382015481526020016004820154815260200160058201548152602001600682015481525050905092915050565b60005b6103e881146110e5576000806000848152602001908152602001600020600301600083815260200190815260200160002060000180546110c9906118ab565b905003156110e5576001816110de919061190b565b905061108a565b6001600080848152602001908152602001600020600301600060018461110b9190611961565b8152602001908152602001600020600401600082825461112b919061190b565b92505081905550600160008084815260200190815260200160002060030160006001846111589190611961565b81526020019081526020016000206005016000828254611178919061190b565b925050819055505050565b82805461118f906118ab565b90600052602060002090601f0160209004810192826111b157600085556111f8565b82601f106111ca57803560ff19168380011785556111f8565b828001600101855582156111f8579182015b828111156111f75782358255916020019190600101906111dc565b5b5090506112059190611246565b5090565b6040518060e00160405280606081526020016060815260200160608152602001600081526020016000815260200160008152602001600081525090565b5b8082111561125f576000816000905550600101611247565b5090565b600080fd5b600080fd5b6000819050919050565b6112808161126d565b811461128b57600080fd5b50565b60008135905061129d81611277565b92915050565b600080fd5b600080fd5b600080fd5b60008083601f8401126112c8576112c76112a3565b5b8235905067ffffffffffffffff8111156112e5576112e46112a8565b5b602083019150836001820283011115611301576113006112ad565b5b9250929050565b60008060008060008060008060008060006101008c8e03121561132e5761132d611263565b5b600061133c8e828f0161128e565b9b505060208c013567ffffffffffffffff81111561135d5761135c611268565b5b6113698e828f016112b2565b9a509a505060408c013567ffffffffffffffff81111561138c5761138b611268565b5b6113988e828f016112b2565b985098505060608c013567ffffffffffffffff8111156113bb576113ba611268565b5b6113c78e828f016112b2565b965096505060806113da8e828f0161128e565b94505060a06113eb8e828f0161128e565b93505060c06113fc8e828f0161128e565b92505060e061140d8e828f0161128e565b9150509295989b509295989b9093969950565b6114298161126d565b82525050565b60006020820190506114446000830184611420565b92915050565b600080600080600080600080600080600060c08c8e03121561146f5761146e611263565b5b600061147d8e828f0161128e565b9b505060208c013567ffffffffffffffff81111561149e5761149d611268565b5b6114aa8e828f016112b2565b9a509a505060408c013567ffffffffffffffff8111156114cd576114cc611268565b5b6114d98e828f016112b2565b985098505060608c013567ffffffffffffffff8111156114fc576114fb611268565b5b6115088e828f016112b2565b965096505060808c013567ffffffffffffffff81111561152b5761152a611268565b5b6115378e828f016112b2565b945094505060a08c013567ffffffffffffffff81111561155a57611559611268565b5b6115668e828f016112b2565b92509250509295989b509295989b9093969950565b60008060006040848603121561159457611593611263565b5b60006115a28682870161128e565b935050602084013567ffffffffffffffff8111156115c3576115c2611268565b5b6115cf868287016112b2565b92509250509250925092565b6000602082840312156115f1576115f0611263565b5b60006115ff8482850161128e565b91505092915050565b600081519050919050565b600082825260208201905092915050565b60005b83811015611642578082015181840152602081019050611627565b83811115611651576000848401525b50505050565b6000601f19601f8301169050919050565b600061167382611608565b61167d8185611613565b935061168d818560208601611624565b61169681611657565b840191505092915050565b600060a08201905081810360008301526116bb8188611668565b905081810360208301526116cf8187611668565b905081810360408301526116e38186611668565b905081810360608301526116f78185611668565b9050818103608083015261170b8184611668565b90509695505050505050565b600082825260208201905092915050565b600061173382611608565b61173d8185611717565b935061174d818560208601611624565b61175681611657565b840191505092915050565b61176a8161126d565b82525050565b600060e083016000830151848203600086015261178d8282611728565b915050602083015184820360208601526117a78282611728565b915050604083015184820360408601526117c18282611728565b91505060608301516117d66060860182611761565b5060808301516117e96080860182611761565b5060a08301516117fc60a0860182611761565b5060c083015161180f60c0860182611761565b508091505092915050565b600060208201905081810360008301526118348184611770565b905092915050565b6000806040838503121561185357611852611263565b5b60006118618582860161128e565b92505060206118728582860161128e565b9150509250929050565b7f4e487b7100000000000000000000000000000000000000000000000000000000600052602260045260246000fd5b600060028204905060018216806118c357607f821691505b6020821081036118d6576118d561187c565b5b50919050565b7f4e487b7100000000000000000000000000000000000000000000000000000000600052601160045260246000fd5b60006119168261126d565b91506119218361126d565b9250827fffffffffffffffffffffffffffffffffffffffffffffffffffffffffffffffff03821115611956576119556118dc565b5b828201905092915050565b600061196c8261126d565b91506119778361126d565b92508282101561198a576119896118dc565b5b82820390509291505056fea264697066735822122072f9007293e81b9413dd53212f0cc77689becc930f6e6218c5036c0fc0bb6b8564736f6c634300080e0033",
  "immutableReferences": {},
  "source": "pragma solidity ^0.8.0;\n\ncontract Contract{\n\n    struct Desc {\n        string updated_by;\n        string updated_at;\n        string report_hash;\n        uint vote_app;\n        uint vote_din;\n        uint vote_count;\n        uint report_index;\n    }\n\n    struct Case {\n        string created_by;\n        string created_at;\n        string file_hash;\n        mapping(uint256=>Desc) desc;\n        string status;\n        string description;\n    }\n\n    mapping(uint256=>Case) internal cases;\n\n    function createCase(uint256 id, string calldata created_by,  string calldata created_at,  string calldata file_hash, string calldata status, string calldata description) external\n    {\n        cases[id].created_by = created_by;\n        cases[id].created_at = created_at;\n        cases[id].file_hash = file_hash;\n        cases[id].status = status;\n        cases[id].description = description;\n    }\n\n\n    function getCase(uint256 id) external view returns (string memory created_by,\n                                                        string memory created_at,\n                                                        string memory file_hash,\n                                                        string memory status,\n                                                        string memory description)\n    {\n        return (    cases[id].created_by,\n                    cases[id].created_at,\n                    cases[id].file_hash,\n                    cases[id].status,\n                    cases[id].description);\n    }\n\n    function getLastCaseIndex() external view returns (uint256 index)\n    {\n        uint x;\n        for (x = 0; x != 1000; x += 1)\n        {\n            if(bytes(cases[x].created_at).length  == 0)\n                return (x);\n        }\n    }\n\n\n\n    function setNewDescriptor(uint256 id, string calldata updated_by,  string calldata updated_at,  string calldata description,\n                              uint256 vote_app,uint256 vote_din, uint256 vote_count, uint256 report_index) external\n    {\n        uint x;\n        for (x = 0; x != 1000; x += 1)\n        {\n            if(bytes(cases[id].desc[x].updated_by).length  == 0)\n                break;\n        }\n        cases[id].desc[x].updated_by = updated_by;\n        cases[id].desc[x].updated_at = updated_at;\n        cases[id].desc[x].report_hash = description;\n        cases[id].desc[x].vote_app = vote_app;\n        cases[id].desc[x].vote_din = vote_din;\n        cases[id].desc[x].vote_count = vote_count;\n        cases[id].desc[x].report_index = report_index;\n    }\n\n    function setoldDescriptor(uint256 id, string calldata updated_by,  string calldata updated_at,  string calldata description,\n                              uint256 vote_app,uint256 vote_din, uint256 vote_count, uint256 report_index) external\n    {\n        uint x;\n        for (x = 0; x != 1000; x += 1)\n        {\n            if(bytes(cases[id].desc[x].updated_by).length  == 0)\n                break;\n        }\n        x -= 1;\n        cases[id].desc[x].updated_by = updated_by;\n        cases[id].desc[x].updated_at = updated_at;\n        cases[id].desc[x].report_hash = description;\n        cases[id].desc[x].vote_app = vote_app;\n        cases[id].desc[x].vote_din = vote_din;\n        cases[id].desc[x].vote_count = vote_count;\n        cases[id].desc[x].report_index = report_index;\n\n    }\n\n    function getLastDesc(uint256 id) external view returns (Desc memory)\n    {\n        uint x;\n        for (x = 0; x != 1000; x += 1)\n        {\n            if(bytes(cases[id].desc[x].updated_by).length  == 0)\n                break;\n        }\n        return (cases[id].desc[x-1]);\n    }\n\n    function getLastDescIndex(uint256 id) external view returns (uint256 index)\n    {\n        uint x;\n        for (x = 0; x != 1000; x += 1)\n        {\n            if(bytes(cases[id].desc[x].updated_by).length  == 0)\n                return (x);\n        }\n    }\n\n    function getDesc(uint256 id, uint256 x) external view returns (Desc memory)\n    {\n        return (cases[id].desc[x]);\n    }\n\n    function setStatus(uint256 id, string calldata status) external\n    {\n        cases[id].status = status;\n    }\n\n    function approve(uint256 id) external\n    {\n        uint x;\n        for (x = 0; x != 1000; x += 1)\n        {\n            if(bytes(cases[id].desc[x].updated_by).length  == 0)\n                break;\n        }\n\n        cases[id].desc[x-1].vote_app += 1;\n        cases[id].desc[x-1].vote_count += 1;\n    }\n\n    function denie(uint256 id) external\n    {\n        uint x;\n        for (x = 0; x != 1000; x += 1)\n        {\n            if(bytes(cases[id].desc[x].updated_by).length  == 0)\n                break;\n        }\n\n        cases[id].desc[x-1].vote_din += 1;\n        cases[id].desc[x-1].vote_count += 1;\n    }\n}",
  "sourcePath": "/home/syrine/Desktop/Bcooooc/pfe-syrine/ETH_Contract/contracts/contract.sol",
  "compiler": {
    "name": "solc",
    "version": "0.8.14+commit.80d49f37.Emscripten.clang"
  },
  "schemaVersion": "3.4.7",
  "updatedAt": "2022-06-11T16:53:40.764Z",
  "networkType": "ethereum",
  "devdoc": {
    "kind": "dev",
    "methods": {},
    "version": 1
  },
  "userdoc": {
    "kind": "user",
    "methods": {},
    "version": 1
  }
}